{
  "address": "0xd8E89577B717F0735E8D03b99f350ad4d44bE4C7",
  "abi": [
    {
      "inputs": [
        {
          "internalType": "uint256",
          "name": "_minimumCollateralRatio",
          "type": "uint256"
        },
        {
          "internalType": "address",
          "name": "_oracle",
          "type": "address"
        },
        {
          "internalType": "address",
          "name": "_loan",
          "type": "address"
        },
        {
          "internalType": "address",
          "name": "_borrower",
          "type": "address"
        }
      ],
      "stateMutability": "nonpayable",
      "type": "constructor"
    },
    {
      "inputs": [],
      "name": "CallerAccessDenied",
      "type": "error"
    },
    {
      "inputs": [],
      "name": "InvalidCollateral",
      "type": "error"
    },
    {
      "inputs": [],
      "name": "NotLiquidatable",
      "type": "error"
    },
    {
      "inputs": [],
      "name": "UnderCollateralized",
      "type": "error"
    },
    {
      "anonymous": false,
      "inputs": [
        {
          "indexed": true,
          "internalType": "address",
          "name": "token",
          "type": "address"
        },
        {
          "indexed": true,
          "internalType": "uint256",
          "name": "amount",
          "type": "uint256"
        }
      ],
      "name": "AddCollateral",
      "type": "event"
    },
    {
      "anonymous": false,
      "inputs": [
        {
          "indexed": true,
          "internalType": "address",
          "name": "token",
          "type": "address"
        },
        {
          "indexed": true,
          "internalType": "int256",
          "name": "price",
          "type": "int256"
        }
      ],
      "name": "EnableCollateral",
      "type": "event"
    },
    {
      "anonymous": false,
      "inputs": [
        {
          "indexed": true,
          "internalType": "address",
          "name": "token",
          "type": "address"
        },
        {
          "indexed": true,
          "internalType": "uint256",
          "name": "amount",
          "type": "uint256"
        }
      ],
      "name": "Liquidate",
      "type": "event"
    },
    {
      "anonymous": false,
      "inputs": [
        {
          "indexed": true,
          "internalType": "address",
          "name": "token",
          "type": "address"
        },
        {
          "indexed": true,
          "internalType": "uint256",
          "name": "amount",
          "type": "uint256"
        }
      ],
      "name": "RemoveCollateral",
      "type": "event"
    },
    {
      "inputs": [
        {
          "internalType": "uint256",
          "name": "amount",
          "type": "uint256"
        },
        {
          "internalType": "address",
          "name": "token",
          "type": "address"
        }
      ],
      "name": "addCollateral",
      "outputs": [
        {
          "internalType": "uint256",
          "name": "",
          "type": "uint256"
        }
      ],
      "stateMutability": "nonpayable",
      "type": "function"
    },
    {
      "inputs": [],
      "name": "borrower",
      "outputs": [
        {
          "internalType": "address",
          "name": "",
          "type": "address"
        }
      ],
      "stateMutability": "view",
      "type": "function"
    },
    {
      "inputs": [
        {
          "internalType": "address",
          "name": "",
          "type": "address"
        }
      ],
      "name": "deposited",
      "outputs": [
        {
          "internalType": "uint256",
          "name": "amount",
          "type": "uint256"
        },
        {
          "internalType": "bool",
          "name": "isERC4626",
          "type": "bool"
        },
        {
          "internalType": "address",
          "name": "asset",
          "type": "address"
        },
        {
          "internalType": "uint8",
          "name": "assetDecimals",
          "type": "uint8"
        }
      ],
      "stateMutability": "view",
      "type": "function"
    },
    {
      "inputs": [
        {
          "internalType": "address",
          "name": "token",
          "type": "address"
        }
      ],
      "name": "enableCollateral",
      "outputs": [
        {
          "internalType": "bool",
          "name": "",
          "type": "bool"
        }
      ],
      "stateMutability": "nonpayable",
      "type": "function"
    },
    {
      "inputs": [],
      "name": "getCollateralRatio",
      "outputs": [
        {
          "internalType": "uint256",
          "name": "",
          "type": "uint256"
        }
      ],
      "stateMutability": "nonpayable",
      "type": "function"
    },
    {
      "inputs": [],
      "name": "getCollateralValue",
      "outputs": [
        {
          "internalType": "uint256",
          "name": "",
          "type": "uint256"
        }
      ],
      "stateMutability": "nonpayable",
      "type": "function"
    },
    {
      "inputs": [],
      "name": "isLiquidatable",
      "outputs": [
        {
          "internalType": "bool",
          "name": "",
          "type": "bool"
        }
      ],
      "stateMutability": "nonpayable",
      "type": "function"
    },
    {
      "inputs": [
        {
          "internalType": "uint256",
          "name": "amount",
          "type": "uint256"
        },
        {
          "internalType": "address",
          "name": "token",
          "type": "address"
        },
        {
          "internalType": "address",
          "name": "to",
          "type": "address"
        }
      ],
      "name": "liquidate",
      "outputs": [
        {
          "internalType": "bool",
          "name": "",
          "type": "bool"
        }
      ],
      "stateMutability": "nonpayable",
      "type": "function"
    },
    {
      "inputs": [],
      "name": "loan",
      "outputs": [
        {
          "internalType": "address",
          "name": "",
          "type": "address"
        }
      ],
      "stateMutability": "view",
      "type": "function"
    },
    {
      "inputs": [],
      "name": "minimumCollateralRatio",
      "outputs": [
        {
          "internalType": "uint256",
          "name": "",
          "type": "uint256"
        }
      ],
      "stateMutability": "view",
      "type": "function"
    },
    {
      "inputs": [],
      "name": "oracle",
      "outputs": [
        {
          "internalType": "address",
          "name": "",
          "type": "address"
        }
      ],
      "stateMutability": "view",
      "type": "function"
    },
    {
      "inputs": [
        {
          "internalType": "uint256",
          "name": "amount",
          "type": "uint256"
        },
        {
          "internalType": "address",
          "name": "token",
          "type": "address"
        },
        {
          "internalType": "address",
          "name": "to",
          "type": "address"
        }
      ],
      "name": "releaseCollateral",
      "outputs": [
        {
          "internalType": "uint256",
          "name": "",
          "type": "uint256"
        }
      ],
      "stateMutability": "nonpayable",
      "type": "function"
    },
    {
      "inputs": [
        {
          "internalType": "address",
          "name": "loan_",
          "type": "address"
        }
      ],
      "name": "updateLoan",
      "outputs": [
        {
          "internalType": "bool",
          "name": "",
          "type": "bool"
        }
      ],
      "stateMutability": "nonpayable",
      "type": "function"
    }
  ],
  "transactionHash": "0xaa1486db6bd10b8177a16e8270d260461da6a1787bf181a783ddc2a78f2fb962",
  "args": [
    0,
    "0x7233038E589913DcA4b6D15FF8Bba263A433AED2",
    "0x41d28426925E8201b2A163C4bC1A45D9EAFb32f4",
    "0x41d28426925E8201b2A163C4bC1A45D9EAFb32f4"
  ],
  "numDeployments": 1,
  "solcInputHash": "2a60ac237244dc390ce3bdbc44555d3c",
  "bytecode": "0x60c06040523480156200001157600080fd5b50604051620028fd380380620028fd833981810160405281019062000037919062000196565b836000819055508273ffffffffffffffffffffffffffffffffffffffff1660808173ffffffffffffffffffffffffffffffffffffffff168152505081600160006101000a81548173ffffffffffffffffffffffffffffffffffffffff021916908373ffffffffffffffffffffffffffffffffffffffff1602179055508073ffffffffffffffffffffffffffffffffffffffff1660a08173ffffffffffffffffffffffffffffffffffffffff16815250505050505062000208565b600080fd5b6000819050919050565b6200010b81620000f6565b81146200011757600080fd5b50565b6000815190506200012b8162000100565b92915050565b600073ffffffffffffffffffffffffffffffffffffffff82169050919050565b60006200015e8262000131565b9050919050565b620001708162000151565b81146200017c57600080fd5b50565b600081519050620001908162000165565b92915050565b60008060008060808587031215620001b357620001b2620000f1565b5b6000620001c3878288016200011a565b9450506020620001d6878288016200017f565b9350506040620001e9878288016200017f565b9250506060620001fc878288016200017f565b91505092959194509250565b60805160a0516126ba62000243600039600081816105ee015261084001526000818161081c01528181610f7f01526113b601526126ba6000f3fe608060405234801561001057600080fd5b50600436106100cf5760003560e01c80639f1837ce1161008c578063cadac47911610066578063cadac4791461022a578063cb13cddb1461025a578063cd377c531461028d578063d285b7b4146102ab576100cf565b80639f1837ce146101be578063c047e563146101dc578063caa0a6f0146101fa576100cf565b8063060336ec146100d457806311be0de514610104578063250bc38414610134578063578c65e4146101645780637dc0d1d0146101825780637df1f1b9146101a0575b600080fd5b6100ee60048036038101906100e99190611b52565b6102c9565b6040516100fb9190611bc0565b60405180910390f35b61011e60048036038101906101199190611bdb565b6104f0565b60405161012b9190611bc0565b60405180910390f35b61014e60048036038101906101499190611b52565b6105de565b60405161015b9190611c17565b60405180910390f35b61016c610808565b6040516101799190611bc0565b60405180910390f35b61018a61081a565b6040516101979190611c41565b60405180910390f35b6101a861083e565b6040516101b59190611c41565b60405180910390f35b6101c6610862565b6040516101d39190611c17565b60405180910390f35b6101e4610868565b6040516101f19190611c17565b60405180910390f35b610214600480360381019061020f9190611bdb565b610877565b6040516102219190611bc0565b60405180910390f35b610244600480360381019061023f9190611c5c565b61091d565b6040516102519190611c17565b60405180910390f35b610274600480360381019061026f9190611bdb565b610a88565b6040516102849493929190611cb8565b60405180910390f35b610295610af2565b6040516102a29190611c17565b60405180910390f35b6102b3610b01565b6040516102c09190611c41565b60405180910390f35b60008084116102d757600080fd5b600160009054906101000a900473ffffffffffffffffffffffffffffffffffffffff1673ffffffffffffffffffffffffffffffffffffffff163373ffffffffffffffffffffffffffffffffffffffff161461035e576040517f1172e7cd00000000000000000000000000000000000000000000000000000000815260040160405180910390fd5b83600460008573ffffffffffffffffffffffffffffffffffffffff1673ffffffffffffffffffffffffffffffffffffffff1681526020019081526020016000206000015410156103da576040517fd1ef4cea00000000000000000000000000000000000000000000000000000000815260040160405180910390fd5b6103e2610b27565b600054101561041d576040517fddeb79ba00000000000000000000000000000000000000000000000000000000815260040160405180910390fd5b83600460008573ffffffffffffffffffffffffffffffffffffffff1673ffffffffffffffffffffffffffffffffffffffff168152602001908152602001600020600001600082825461046f9190611d2c565b925050819055506104a182858573ffffffffffffffffffffffffffffffffffffffff16610c4e9092919063ffffffff16565b838373ffffffffffffffffffffffffffffffffffffffff167f08813a3631e12129135cc9440d3fea50eec346f1673b20b994b0456d5d46ccb960405160405180910390a3600190509392505050565b6000600160009054906101000a900473ffffffffffffffffffffffffffffffffffffffff1673ffffffffffffffffffffffffffffffffffffffff1663fe25e00a6040518163ffffffff1660e01b8152600401602060405180830381600087803b15801561055c57600080fd5b505af1158015610570573d6000803e3d6000fd5b505050506040513d601f19601f820116820180604052508101906105949190611d75565b73ffffffffffffffffffffffffffffffffffffffff163373ffffffffffffffffffffffffffffffffffffffff16146105cb57600080fd5b6105d482610cd4565b5060019050919050565b60008084116105ec57600080fd5b7f000000000000000000000000000000000000000000000000000000000000000073ffffffffffffffffffffffffffffffffffffffff163373ffffffffffffffffffffffffffffffffffffffff1614610671576040517f1172e7cd00000000000000000000000000000000000000000000000000000000815260040160405180910390fd5b83600460008573ffffffffffffffffffffffffffffffffffffffff1673ffffffffffffffffffffffffffffffffffffffff1681526020019081526020016000206000015410156106ed576040517fd1ef4cea00000000000000000000000000000000000000000000000000000000815260040160405180910390fd5b83600460008573ffffffffffffffffffffffffffffffffffffffff1673ffffffffffffffffffffffffffffffffffffffff168152602001908152602001600020600001600082825461073f9190611d2c565b9250508190555061077182858573ffffffffffffffffffffffffffffffffffffffff16610c4e9092919063ffffffff16565b600061077b610b27565b90506000548110156107b9576040517f30b58a9100000000000000000000000000000000000000000000000000000000815260040160405180910390fd5b848473ffffffffffffffffffffffffffffffffffffffff167fe25410a4059619c9594dc6f022fe231b02aaea733f689e7ab0cd21b3d4d0eb5460405160405180910390a3809150509392505050565b60008054610814610b27565b10905090565b7f000000000000000000000000000000000000000000000000000000000000000081565b7f000000000000000000000000000000000000000000000000000000000000000081565b60005481565b60006108726113a1565b905090565b6000600160009054906101000a900473ffffffffffffffffffffffffffffffffffffffff1673ffffffffffffffffffffffffffffffffffffffff163373ffffffffffffffffffffffffffffffffffffffff16146108d357600080fd5b81600160006101000a81548173ffffffffffffffffffffffffffffffffffffffff021916908373ffffffffffffffffffffffffffffffffffffffff16021790555060019050919050565b600080831161092b57600080fd5b600360008373ffffffffffffffffffffffffffffffffffffffff1673ffffffffffffffffffffffffffffffffffffffff16815260200190815260200160002060009054906101000a900460ff166109ae576040517fd1ef4cea00000000000000000000000000000000000000000000000000000000815260040160405180910390fd5b6109db3330858573ffffffffffffffffffffffffffffffffffffffff16611713909392919063ffffffff16565b82600460008473ffffffffffffffffffffffffffffffffffffffff1673ffffffffffffffffffffffffffffffffffffffff1681526020019081526020016000206000016000828254610a2d9190611da2565b92505081905550828273ffffffffffffffffffffffffffffffffffffffff167f2ac90482c3b6bea30a2c085cf093016bad7f970d91c5fd233e6b848d3e231dc360405160405180910390a3610a80610b27565b905092915050565b60046020528060005260406000206000915090508060000154908060010160009054906101000a900460ff16908060010160019054906101000a900473ffffffffffffffffffffffffffffffffffffffff16908060010160159054906101000a900460ff16905084565b6000610afc610b27565b905090565b600160009054906101000a900473ffffffffffffffffffffffffffffffffffffffff1681565b6000806000600160009054906101000a900473ffffffffffffffffffffffffffffffffffffffff1673ffffffffffffffffffffffffffffffffffffffff1663501b56d86040518163ffffffff1660e01b81526004016040805180830381600087803b158015610b9557600080fd5b505af1158015610ba9573d6000803e3d6000fd5b505050506040513d601f19601f82011682018060405250810190610bcd9190611e0d565b9150915060008183610bdf9190611da2565b90506000610beb6113a1565b90506000811415610c03576000945050505050610c4b565b6000821415610c38577fffffffffffffffffffffffffffffffffffffffffffffffffffffffffffffffff945050505050610c4b565b610c448183601261179c565b9450505050505b90565b610ccf8363a9059cbb60e01b8484604051602401610c6d929190611e4d565b604051602081830303815290604052907bffffffffffffffffffffffffffffffffffffffffffffffffffffffff19166020820180517bffffffffffffffffffffffffffffffffffffffffffffffffffffffff83818316178352505050506117f9565b505050565b600080600360008473ffffffffffffffffffffffffffffffffffffffff1673ffffffffffffffffffffffffffffffffffffffff16815260200190815260200160002060009054906101000a900460ff16905080611397576000600460008573ffffffffffffffffffffffffffffffffffffffff1673ffffffffffffffffffffffffffffffffffffffff168152602001908152602001600020604051806080016040529081600082015481526020016001820160009054906101000a900460ff161515151581526020016001820160019054906101000a900473ffffffffffffffffffffffffffffffffffffffff1673ffffffffffffffffffffffffffffffffffffffff1673ffffffffffffffffffffffffffffffffffffffff1681526020016001820160159054906101000a900460ff1660ff1660ff168152505090506000808573ffffffffffffffffffffffffffffffffffffffff166040516024016040516020818303038152906040527f38d52e0f000000000000000000000000000000000000000000000000000000007bffffffffffffffffffffffffffffffffffffffffffffffffffffffff19166020820180517bffffffffffffffffffffffffffffffffffffffffffffffffffffffff8381831617835250505050604051610ebb9190611ef0565b6000604051808303816000865af19150503d8060008114610ef8576040519150601f19603f3d011682016040523d82523d6000602084013e610efd565b606091505b50915091506000808251118015610f115750825b9050808460200190151590811515815250508015610f425781806020019051810190610f3d9190611f45565b610f44565b865b846040019073ffffffffffffffffffffffffffffffffffffffff16908173ffffffffffffffffffffffffffffffffffffffff168152505060007f000000000000000000000000000000000000000000000000000000000000000073ffffffffffffffffffffffffffffffffffffffff16636849a3ba86604001516040518263ffffffff1660e01b8152600401610fda9190611c41565b602060405180830381600087803b158015610ff457600080fd5b505af1158015611008573d6000803e3d6000fd5b505050506040513d601f19601f8201168201806040525081019061102c9190611fa8565b905060008113611068576040517fd1ef4cea00000000000000000000000000000000000000000000000000000000815260040160405180910390fd5b600080866040015173ffffffffffffffffffffffffffffffffffffffff166040516024016040516020818303038152906040527f313ce567000000000000000000000000000000000000000000000000000000007bffffffffffffffffffffffffffffffffffffffffffffffffffffffff19166020820180517bffffffffffffffffffffffffffffffffffffffffffffffffffffffff83818316178352505050506040516111169190611ef0565b6000604051808303816000865af19150503d8060008114611153576040519150601f19603f3d011682016040523d82523d6000602084013e611158565b606091505b50915091506000815111801561116b5750815b1561119a57808060200190518101906111849190612001565b876060019060ff16908160ff16815250506111ae565b6012876060019060ff16908160ff16815250505b6001600360008c73ffffffffffffffffffffffffffffffffffffffff1673ffffffffffffffffffffffffffffffffffffffff16815260200190815260200160002060006101000a81548160ff02191690831515021790555086600460008c73ffffffffffffffffffffffffffffffffffffffff1673ffffffffffffffffffffffffffffffffffffffff1681526020019081526020016000206000820151816000015560208201518160010160006101000a81548160ff02191690831515021790555060408201518160010160016101000a81548173ffffffffffffffffffffffffffffffffffffffff021916908373ffffffffffffffffffffffffffffffffffffffff16021790555060608201518160010160156101000a81548160ff021916908360ff16021790555090505060028a9080600181540180825580915050600190039060005260206000200160009091909190916101000a81548173ffffffffffffffffffffffffffffffffffffffff021916908373ffffffffffffffffffffffffffffffffffffffff16021790555082876040015173ffffffffffffffffffffffffffffffffffffffff167f292b47225ec7a0c7e1bae48dbb6ce8ddd9f7479e5398721b82de816f7282498560405160405180910390a360019850505050505050505061139c565b809150505b919050565b600080600090506000600280549050905060007f000000000000000000000000000000000000000000000000000000000000000090506113df611a76565b60005b8381101561170857600060028281548110611400576113ff61202e565b5b9060005260206000200160009054906101000a900473ffffffffffffffffffffffffffffffffffffffff169050600460008273ffffffffffffffffffffffffffffffffffffffff1673ffffffffffffffffffffffffffffffffffffffff168152602001908152602001600020604051806080016040529081600082015481526020016001820160009054906101000a900460ff161515151581526020016001820160019054906101000a900473ffffffffffffffffffffffffffffffffffffffff1673ffffffffffffffffffffffffffffffffffffffff1673ffffffffffffffffffffffffffffffffffffffff1681526020016001820160159054906101000a900460ff1660ff1660ff16815250509250600083600001519050600081146116f25783602001511561164f576000808373ffffffffffffffffffffffffffffffffffffffff16836040516024016115579190611c17565b6040516020818303038152906040527f4cdad506000000000000000000000000000000000000000000000000000000007bffffffffffffffffffffffffffffffffffffffffffffffffffffffff19166020820180517bffffffffffffffffffffffffffffffffffffffffffffffffffffffff83818316178352505050506040516115e19190611ef0565b6000604051808303816000865af19150503d806000811461161e576040519150601f19603f3d011682016040523d82523d6000602084013e611623565b606091505b50915091508161163657505050506116f5565b8080602001905181019061164a919061205d565b925050505b73D0a68b3894704A17056FE6Cc64Fb314a528813A463cae8b7128686604001518488606001516040518563ffffffff1660e01b81526004016116949493929190612116565b60206040518083038186803b1580156116ac57600080fd5b505af41580156116c0573d6000803e3d6000fd5b505050506040513d601f19601f820116820180604052508101906116e4919061205d565b876116ef9190611da2565b96505b50505b80806117009061215b565b9150506113e2565b508394505050505090565b611796846323b872dd60e01b858585604051602401611734939291906121a4565b604051602081830303815290604052907bffffffffffffffffffffffffffffffffffffffffffffffffffffffff19166020820180517bffffffffffffffffffffffffffffffffffffffffffffffffffffffff83818316178352505050506117f9565b50505050565b6000806001836117ac9190611da2565b600a6117b8919061230e565b856117c39190612359565b90506000600a600586846117d791906123e2565b6117e19190611da2565b6117eb91906123e2565b905080925050509392505050565b600061185b826040518060400160405280602081526020017f5361666545524332303a206c6f772d6c6576656c2063616c6c206661696c65648152508573ffffffffffffffffffffffffffffffffffffffff166118c09092919063ffffffff16565b90506000815111156118bb578080602001905181019061187b919061243f565b6118ba576040517f08c379a00000000000000000000000000000000000000000000000000000000081526004016118b1906124ef565b60405180910390fd5b5b505050565b60606118cf84846000856118d8565b90509392505050565b60608247101561191d576040517f08c379a000000000000000000000000000000000000000000000000000000000815260040161191490612581565b60405180910390fd5b611926856119ec565b611965576040517f08c379a000000000000000000000000000000000000000000000000000000000815260040161195c906125ed565b60405180910390fd5b6000808673ffffffffffffffffffffffffffffffffffffffff16858760405161198e9190611ef0565b60006040518083038185875af1925050503d80600081146119cb576040519150601f19603f3d011682016040523d82523d6000602084013e6119d0565b606091505b50915091506119e0828286611a0f565b92505050949350505050565b6000808273ffffffffffffffffffffffffffffffffffffffff163b119050919050565b60608315611a1f57829050611a6f565b600083511115611a325782518084602001fd5b816040517f08c379a0000000000000000000000000000000000000000000000000000000008152600401611a669190612662565b60405180910390fd5b9392505050565b604051806080016040528060008152602001600015158152602001600073ffffffffffffffffffffffffffffffffffffffff168152602001600060ff1681525090565b600080fd5b6000819050919050565b611ad181611abe565b8114611adc57600080fd5b50565b600081359050611aee81611ac8565b92915050565b600073ffffffffffffffffffffffffffffffffffffffff82169050919050565b6000611b1f82611af4565b9050919050565b611b2f81611b14565b8114611b3a57600080fd5b50565b600081359050611b4c81611b26565b92915050565b600080600060608486031215611b6b57611b6a611ab9565b5b6000611b7986828701611adf565b9350506020611b8a86828701611b3d565b9250506040611b9b86828701611b3d565b9150509250925092565b60008115159050919050565b611bba81611ba5565b82525050565b6000602082019050611bd56000830184611bb1565b92915050565b600060208284031215611bf157611bf0611ab9565b5b6000611bff84828501611b3d565b91505092915050565b611c1181611abe565b82525050565b6000602082019050611c2c6000830184611c08565b92915050565b611c3b81611b14565b82525050565b6000602082019050611c566000830184611c32565b92915050565b60008060408385031215611c7357611c72611ab9565b5b6000611c8185828601611adf565b9250506020611c9285828601611b3d565b9150509250929050565b600060ff82169050919050565b611cb281611c9c565b82525050565b6000608082019050611ccd6000830187611c08565b611cda6020830186611bb1565b611ce76040830185611c32565b611cf46060830184611ca9565b95945050505050565b7f4e487b7100000000000000000000000000000000000000000000000000000000600052601160045260246000fd5b6000611d3782611abe565b9150611d4283611abe565b925082821015611d5557611d54611cfd565b5b828203905092915050565b600081519050611d6f81611b26565b92915050565b600060208284031215611d8b57611d8a611ab9565b5b6000611d9984828501611d60565b91505092915050565b6000611dad82611abe565b9150611db883611abe565b9250827fffffffffffffffffffffffffffffffffffffffffffffffffffffffffffffffff03821115611ded57611dec611cfd565b5b828201905092915050565b600081519050611e0781611ac8565b92915050565b60008060408385031215611e2457611e23611ab9565b5b6000611e3285828601611df8565b9250506020611e4385828601611df8565b9150509250929050565b6000604082019050611e626000830185611c32565b611e6f6020830184611c08565b9392505050565b600081519050919050565b600081905092915050565b60005b83811015611eaa578082015181840152602081019050611e8f565b83811115611eb9576000848401525b50505050565b6000611eca82611e76565b611ed48185611e81565b9350611ee4818560208601611e8c565b80840191505092915050565b6000611efc8284611ebf565b915081905092915050565b6000611f1282611af4565b9050919050565b611f2281611f07565b8114611f2d57600080fd5b50565b600081519050611f3f81611f19565b92915050565b600060208284031215611f5b57611f5a611ab9565b5b6000611f6984828501611f30565b91505092915050565b6000819050919050565b611f8581611f72565b8114611f9057600080fd5b50565b600081519050611fa281611f7c565b92915050565b600060208284031215611fbe57611fbd611ab9565b5b6000611fcc84828501611f93565b91505092915050565b611fde81611c9c565b8114611fe957600080fd5b50565b600081519050611ffb81611fd5565b92915050565b60006020828403121561201757612016611ab9565b5b600061202584828501611fec565b91505092915050565b7f4e487b7100000000000000000000000000000000000000000000000000000000600052603260045260246000fd5b60006020828403121561207357612072611ab9565b5b600061208184828501611df8565b91505092915050565b6000819050919050565b60006120af6120aa6120a584611af4565b61208a565b611af4565b9050919050565b60006120c182612094565b9050919050565b60006120d3826120b6565b9050919050565b6120e3816120c8565b82525050565b6120f281611b14565b82525050565b61210181611abe565b82525050565b61211081611c9c565b82525050565b600060808201905061212b60008301876120da565b61213860208301866120e9565b61214560408301856120f8565b6121526060830184612107565b95945050505050565b600061216682611abe565b91507fffffffffffffffffffffffffffffffffffffffffffffffffffffffffffffffff82141561219957612198611cfd565b5b600182019050919050565b60006060820190506121b96000830186611c32565b6121c66020830185611c32565b6121d36040830184611c08565b949350505050565b60008160011c9050919050565b6000808291508390505b60018511156122325780860481111561220e5761220d611cfd565b5b600185161561221d5780820291505b808102905061222b856121db565b94506121f2565b94509492505050565b60008261224b5760019050612307565b816122595760009050612307565b816001811461226f5760028114612279576122a8565b6001915050612307565b60ff84111561228b5761228a611cfd565b5b8360020a9150848211156122a2576122a1611cfd565b5b50612307565b5060208310610133831016604e8410600b84101617156122dd5782820a9050838111156122d8576122d7611cfd565b5b612307565b6122ea84848460016121e8565b9250905081840481111561230157612300611cfd565b5b81810290505b9392505050565b600061231982611abe565b915061232483611abe565b92506123517fffffffffffffffffffffffffffffffffffffffffffffffffffffffffffffffff848461223b565b905092915050565b600061236482611abe565b915061236f83611abe565b9250817fffffffffffffffffffffffffffffffffffffffffffffffffffffffffffffffff04831182151516156123a8576123a7611cfd565b5b828202905092915050565b7f4e487b7100000000000000000000000000000000000000000000000000000000600052601260045260246000fd5b60006123ed82611abe565b91506123f883611abe565b925082612408576124076123b3565b5b828204905092915050565b61241c81611ba5565b811461242757600080fd5b50565b60008151905061243981612413565b92915050565b60006020828403121561245557612454611ab9565b5b60006124638482850161242a565b91505092915050565b600082825260208201905092915050565b7f5361666545524332303a204552433230206f7065726174696f6e20646964206e60008201527f6f74207375636365656400000000000000000000000000000000000000000000602082015250565b60006124d9602a8361246c565b91506124e48261247d565b604082019050919050565b60006020820190508181036000830152612508816124cc565b9050919050565b7f416464726573733a20696e73756666696369656e742062616c616e636520666f60008201527f722063616c6c0000000000000000000000000000000000000000000000000000602082015250565b600061256b60268361246c565b91506125768261250f565b604082019050919050565b6000602082019050818103600083015261259a8161255e565b9050919050565b7f416464726573733a2063616c6c20746f206e6f6e2d636f6e7472616374000000600082015250565b60006125d7601d8361246c565b91506125e2826125a1565b602082019050919050565b60006020820190508181036000830152612606816125ca565b9050919050565b600081519050919050565b6000601f19601f8301169050919050565b60006126348261260d565b61263e818561246c565b935061264e818560208601611e8c565b61265781612618565b840191505092915050565b6000602082019050818103600083015261267c8184612629565b90509291505056fea2646970667358221220fae1a611072b3cfee24c454df3693e8567c102001243605f2e593c4e8ad8778864736f6c63430008090033",
  "deployedBytecode": "0x608060405234801561001057600080fd5b50600436106100cf5760003560e01c80639f1837ce1161008c578063cadac47911610066578063cadac4791461022a578063cb13cddb1461025a578063cd377c531461028d578063d285b7b4146102ab576100cf565b80639f1837ce146101be578063c047e563146101dc578063caa0a6f0146101fa576100cf565b8063060336ec146100d457806311be0de514610104578063250bc38414610134578063578c65e4146101645780637dc0d1d0146101825780637df1f1b9146101a0575b600080fd5b6100ee60048036038101906100e99190611b52565b6102c9565b6040516100fb9190611bc0565b60405180910390f35b61011e60048036038101906101199190611bdb565b6104f0565b60405161012b9190611bc0565b60405180910390f35b61014e60048036038101906101499190611b52565b6105de565b60405161015b9190611c17565b60405180910390f35b61016c610808565b6040516101799190611bc0565b60405180910390f35b61018a61081a565b6040516101979190611c41565b60405180910390f35b6101a861083e565b6040516101b59190611c41565b60405180910390f35b6101c6610862565b6040516101d39190611c17565b60405180910390f35b6101e4610868565b6040516101f19190611c17565b60405180910390f35b610214600480360381019061020f9190611bdb565b610877565b6040516102219190611bc0565b60405180910390f35b610244600480360381019061023f9190611c5c565b61091d565b6040516102519190611c17565b60405180910390f35b610274600480360381019061026f9190611bdb565b610a88565b6040516102849493929190611cb8565b60405180910390f35b610295610af2565b6040516102a29190611c17565b60405180910390f35b6102b3610b01565b6040516102c09190611c41565b60405180910390f35b60008084116102d757600080fd5b600160009054906101000a900473ffffffffffffffffffffffffffffffffffffffff1673ffffffffffffffffffffffffffffffffffffffff163373ffffffffffffffffffffffffffffffffffffffff161461035e576040517f1172e7cd00000000000000000000000000000000000000000000000000000000815260040160405180910390fd5b83600460008573ffffffffffffffffffffffffffffffffffffffff1673ffffffffffffffffffffffffffffffffffffffff1681526020019081526020016000206000015410156103da576040517fd1ef4cea00000000000000000000000000000000000000000000000000000000815260040160405180910390fd5b6103e2610b27565b600054101561041d576040517fddeb79ba00000000000000000000000000000000000000000000000000000000815260040160405180910390fd5b83600460008573ffffffffffffffffffffffffffffffffffffffff1673ffffffffffffffffffffffffffffffffffffffff168152602001908152602001600020600001600082825461046f9190611d2c565b925050819055506104a182858573ffffffffffffffffffffffffffffffffffffffff16610c4e9092919063ffffffff16565b838373ffffffffffffffffffffffffffffffffffffffff167f08813a3631e12129135cc9440d3fea50eec346f1673b20b994b0456d5d46ccb960405160405180910390a3600190509392505050565b6000600160009054906101000a900473ffffffffffffffffffffffffffffffffffffffff1673ffffffffffffffffffffffffffffffffffffffff1663fe25e00a6040518163ffffffff1660e01b8152600401602060405180830381600087803b15801561055c57600080fd5b505af1158015610570573d6000803e3d6000fd5b505050506040513d601f19601f820116820180604052508101906105949190611d75565b73ffffffffffffffffffffffffffffffffffffffff163373ffffffffffffffffffffffffffffffffffffffff16146105cb57600080fd5b6105d482610cd4565b5060019050919050565b60008084116105ec57600080fd5b7f000000000000000000000000000000000000000000000000000000000000000073ffffffffffffffffffffffffffffffffffffffff163373ffffffffffffffffffffffffffffffffffffffff1614610671576040517f1172e7cd00000000000000000000000000000000000000000000000000000000815260040160405180910390fd5b83600460008573ffffffffffffffffffffffffffffffffffffffff1673ffffffffffffffffffffffffffffffffffffffff1681526020019081526020016000206000015410156106ed576040517fd1ef4cea00000000000000000000000000000000000000000000000000000000815260040160405180910390fd5b83600460008573ffffffffffffffffffffffffffffffffffffffff1673ffffffffffffffffffffffffffffffffffffffff168152602001908152602001600020600001600082825461073f9190611d2c565b9250508190555061077182858573ffffffffffffffffffffffffffffffffffffffff16610c4e9092919063ffffffff16565b600061077b610b27565b90506000548110156107b9576040517f30b58a9100000000000000000000000000000000000000000000000000000000815260040160405180910390fd5b848473ffffffffffffffffffffffffffffffffffffffff167fe25410a4059619c9594dc6f022fe231b02aaea733f689e7ab0cd21b3d4d0eb5460405160405180910390a3809150509392505050565b60008054610814610b27565b10905090565b7f000000000000000000000000000000000000000000000000000000000000000081565b7f000000000000000000000000000000000000000000000000000000000000000081565b60005481565b60006108726113a1565b905090565b6000600160009054906101000a900473ffffffffffffffffffffffffffffffffffffffff1673ffffffffffffffffffffffffffffffffffffffff163373ffffffffffffffffffffffffffffffffffffffff16146108d357600080fd5b81600160006101000a81548173ffffffffffffffffffffffffffffffffffffffff021916908373ffffffffffffffffffffffffffffffffffffffff16021790555060019050919050565b600080831161092b57600080fd5b600360008373ffffffffffffffffffffffffffffffffffffffff1673ffffffffffffffffffffffffffffffffffffffff16815260200190815260200160002060009054906101000a900460ff166109ae576040517fd1ef4cea00000000000000000000000000000000000000000000000000000000815260040160405180910390fd5b6109db3330858573ffffffffffffffffffffffffffffffffffffffff16611713909392919063ffffffff16565b82600460008473ffffffffffffffffffffffffffffffffffffffff1673ffffffffffffffffffffffffffffffffffffffff1681526020019081526020016000206000016000828254610a2d9190611da2565b92505081905550828273ffffffffffffffffffffffffffffffffffffffff167f2ac90482c3b6bea30a2c085cf093016bad7f970d91c5fd233e6b848d3e231dc360405160405180910390a3610a80610b27565b905092915050565b60046020528060005260406000206000915090508060000154908060010160009054906101000a900460ff16908060010160019054906101000a900473ffffffffffffffffffffffffffffffffffffffff16908060010160159054906101000a900460ff16905084565b6000610afc610b27565b905090565b600160009054906101000a900473ffffffffffffffffffffffffffffffffffffffff1681565b6000806000600160009054906101000a900473ffffffffffffffffffffffffffffffffffffffff1673ffffffffffffffffffffffffffffffffffffffff1663501b56d86040518163ffffffff1660e01b81526004016040805180830381600087803b158015610b9557600080fd5b505af1158015610ba9573d6000803e3d6000fd5b505050506040513d601f19601f82011682018060405250810190610bcd9190611e0d565b9150915060008183610bdf9190611da2565b90506000610beb6113a1565b90506000811415610c03576000945050505050610c4b565b6000821415610c38577fffffffffffffffffffffffffffffffffffffffffffffffffffffffffffffffff945050505050610c4b565b610c448183601261179c565b9450505050505b90565b610ccf8363a9059cbb60e01b8484604051602401610c6d929190611e4d565b604051602081830303815290604052907bffffffffffffffffffffffffffffffffffffffffffffffffffffffff19166020820180517bffffffffffffffffffffffffffffffffffffffffffffffffffffffff83818316178352505050506117f9565b505050565b600080600360008473ffffffffffffffffffffffffffffffffffffffff1673ffffffffffffffffffffffffffffffffffffffff16815260200190815260200160002060009054906101000a900460ff16905080611397576000600460008573ffffffffffffffffffffffffffffffffffffffff1673ffffffffffffffffffffffffffffffffffffffff168152602001908152602001600020604051806080016040529081600082015481526020016001820160009054906101000a900460ff161515151581526020016001820160019054906101000a900473ffffffffffffffffffffffffffffffffffffffff1673ffffffffffffffffffffffffffffffffffffffff1673ffffffffffffffffffffffffffffffffffffffff1681526020016001820160159054906101000a900460ff1660ff1660ff168152505090506000808573ffffffffffffffffffffffffffffffffffffffff166040516024016040516020818303038152906040527f38d52e0f000000000000000000000000000000000000000000000000000000007bffffffffffffffffffffffffffffffffffffffffffffffffffffffff19166020820180517bffffffffffffffffffffffffffffffffffffffffffffffffffffffff8381831617835250505050604051610ebb9190611ef0565b6000604051808303816000865af19150503d8060008114610ef8576040519150601f19603f3d011682016040523d82523d6000602084013e610efd565b606091505b50915091506000808251118015610f115750825b9050808460200190151590811515815250508015610f425781806020019051810190610f3d9190611f45565b610f44565b865b846040019073ffffffffffffffffffffffffffffffffffffffff16908173ffffffffffffffffffffffffffffffffffffffff168152505060007f000000000000000000000000000000000000000000000000000000000000000073ffffffffffffffffffffffffffffffffffffffff16636849a3ba86604001516040518263ffffffff1660e01b8152600401610fda9190611c41565b602060405180830381600087803b158015610ff457600080fd5b505af1158015611008573d6000803e3d6000fd5b505050506040513d601f19601f8201168201806040525081019061102c9190611fa8565b905060008113611068576040517fd1ef4cea00000000000000000000000000000000000000000000000000000000815260040160405180910390fd5b600080866040015173ffffffffffffffffffffffffffffffffffffffff166040516024016040516020818303038152906040527f313ce567000000000000000000000000000000000000000000000000000000007bffffffffffffffffffffffffffffffffffffffffffffffffffffffff19166020820180517bffffffffffffffffffffffffffffffffffffffffffffffffffffffff83818316178352505050506040516111169190611ef0565b6000604051808303816000865af19150503d8060008114611153576040519150601f19603f3d011682016040523d82523d6000602084013e611158565b606091505b50915091506000815111801561116b5750815b1561119a57808060200190518101906111849190612001565b876060019060ff16908160ff16815250506111ae565b6012876060019060ff16908160ff16815250505b6001600360008c73ffffffffffffffffffffffffffffffffffffffff1673ffffffffffffffffffffffffffffffffffffffff16815260200190815260200160002060006101000a81548160ff02191690831515021790555086600460008c73ffffffffffffffffffffffffffffffffffffffff1673ffffffffffffffffffffffffffffffffffffffff1681526020019081526020016000206000820151816000015560208201518160010160006101000a81548160ff02191690831515021790555060408201518160010160016101000a81548173ffffffffffffffffffffffffffffffffffffffff021916908373ffffffffffffffffffffffffffffffffffffffff16021790555060608201518160010160156101000a81548160ff021916908360ff16021790555090505060028a9080600181540180825580915050600190039060005260206000200160009091909190916101000a81548173ffffffffffffffffffffffffffffffffffffffff021916908373ffffffffffffffffffffffffffffffffffffffff16021790555082876040015173ffffffffffffffffffffffffffffffffffffffff167f292b47225ec7a0c7e1bae48dbb6ce8ddd9f7479e5398721b82de816f7282498560405160405180910390a360019850505050505050505061139c565b809150505b919050565b600080600090506000600280549050905060007f000000000000000000000000000000000000000000000000000000000000000090506113df611a76565b60005b8381101561170857600060028281548110611400576113ff61202e565b5b9060005260206000200160009054906101000a900473ffffffffffffffffffffffffffffffffffffffff169050600460008273ffffffffffffffffffffffffffffffffffffffff1673ffffffffffffffffffffffffffffffffffffffff168152602001908152602001600020604051806080016040529081600082015481526020016001820160009054906101000a900460ff161515151581526020016001820160019054906101000a900473ffffffffffffffffffffffffffffffffffffffff1673ffffffffffffffffffffffffffffffffffffffff1673ffffffffffffffffffffffffffffffffffffffff1681526020016001820160159054906101000a900460ff1660ff1660ff16815250509250600083600001519050600081146116f25783602001511561164f576000808373ffffffffffffffffffffffffffffffffffffffff16836040516024016115579190611c17565b6040516020818303038152906040527f4cdad506000000000000000000000000000000000000000000000000000000007bffffffffffffffffffffffffffffffffffffffffffffffffffffffff19166020820180517bffffffffffffffffffffffffffffffffffffffffffffffffffffffff83818316178352505050506040516115e19190611ef0565b6000604051808303816000865af19150503d806000811461161e576040519150601f19603f3d011682016040523d82523d6000602084013e611623565b606091505b50915091508161163657505050506116f5565b8080602001905181019061164a919061205d565b925050505b73__$bc5de6d277e12fd1c4c455d259e7f498b2$__63cae8b7128686604001518488606001516040518563ffffffff1660e01b81526004016116949493929190612116565b60206040518083038186803b1580156116ac57600080fd5b505af41580156116c0573d6000803e3d6000fd5b505050506040513d601f19601f820116820180604052508101906116e4919061205d565b876116ef9190611da2565b96505b50505b80806117009061215b565b9150506113e2565b508394505050505090565b611796846323b872dd60e01b858585604051602401611734939291906121a4565b604051602081830303815290604052907bffffffffffffffffffffffffffffffffffffffffffffffffffffffff19166020820180517bffffffffffffffffffffffffffffffffffffffffffffffffffffffff83818316178352505050506117f9565b50505050565b6000806001836117ac9190611da2565b600a6117b8919061230e565b856117c39190612359565b90506000600a600586846117d791906123e2565b6117e19190611da2565b6117eb91906123e2565b905080925050509392505050565b600061185b826040518060400160405280602081526020017f5361666545524332303a206c6f772d6c6576656c2063616c6c206661696c65648152508573ffffffffffffffffffffffffffffffffffffffff166118c09092919063ffffffff16565b90506000815111156118bb578080602001905181019061187b919061243f565b6118ba576040517f08c379a00000000000000000000000000000000000000000000000000000000081526004016118b1906124ef565b60405180910390fd5b5b505050565b60606118cf84846000856118d8565b90509392505050565b60608247101561191d576040517f08c379a000000000000000000000000000000000000000000000000000000000815260040161191490612581565b60405180910390fd5b611926856119ec565b611965576040517f08c379a000000000000000000000000000000000000000000000000000000000815260040161195c906125ed565b60405180910390fd5b6000808673ffffffffffffffffffffffffffffffffffffffff16858760405161198e9190611ef0565b60006040518083038185875af1925050503d80600081146119cb576040519150601f19603f3d011682016040523d82523d6000602084013e6119d0565b606091505b50915091506119e0828286611a0f565b92505050949350505050565b6000808273ffffffffffffffffffffffffffffffffffffffff163b119050919050565b60608315611a1f57829050611a6f565b600083511115611a325782518084602001fd5b816040517f08c379a0000000000000000000000000000000000000000000000000000000008152600401611a669190612662565b60405180910390fd5b9392505050565b604051806080016040528060008152602001600015158152602001600073ffffffffffffffffffffffffffffffffffffffff168152602001600060ff1681525090565b600080fd5b6000819050919050565b611ad181611abe565b8114611adc57600080fd5b50565b600081359050611aee81611ac8565b92915050565b600073ffffffffffffffffffffffffffffffffffffffff82169050919050565b6000611b1f82611af4565b9050919050565b611b2f81611b14565b8114611b3a57600080fd5b50565b600081359050611b4c81611b26565b92915050565b600080600060608486031215611b6b57611b6a611ab9565b5b6000611b7986828701611adf565b9350506020611b8a86828701611b3d565b9250506040611b9b86828701611b3d565b9150509250925092565b60008115159050919050565b611bba81611ba5565b82525050565b6000602082019050611bd56000830184611bb1565b92915050565b600060208284031215611bf157611bf0611ab9565b5b6000611bff84828501611b3d565b91505092915050565b611c1181611abe565b82525050565b6000602082019050611c2c6000830184611c08565b92915050565b611c3b81611b14565b82525050565b6000602082019050611c566000830184611c32565b92915050565b60008060408385031215611c7357611c72611ab9565b5b6000611c8185828601611adf565b9250506020611c9285828601611b3d565b9150509250929050565b600060ff82169050919050565b611cb281611c9c565b82525050565b6000608082019050611ccd6000830187611c08565b611cda6020830186611bb1565b611ce76040830185611c32565b611cf46060830184611ca9565b95945050505050565b7f4e487b7100000000000000000000000000000000000000000000000000000000600052601160045260246000fd5b6000611d3782611abe565b9150611d4283611abe565b925082821015611d5557611d54611cfd565b5b828203905092915050565b600081519050611d6f81611b26565b92915050565b600060208284031215611d8b57611d8a611ab9565b5b6000611d9984828501611d60565b91505092915050565b6000611dad82611abe565b9150611db883611abe565b9250827fffffffffffffffffffffffffffffffffffffffffffffffffffffffffffffffff03821115611ded57611dec611cfd565b5b828201905092915050565b600081519050611e0781611ac8565b92915050565b60008060408385031215611e2457611e23611ab9565b5b6000611e3285828601611df8565b9250506020611e4385828601611df8565b9150509250929050565b6000604082019050611e626000830185611c32565b611e6f6020830184611c08565b9392505050565b600081519050919050565b600081905092915050565b60005b83811015611eaa578082015181840152602081019050611e8f565b83811115611eb9576000848401525b50505050565b6000611eca82611e76565b611ed48185611e81565b9350611ee4818560208601611e8c565b80840191505092915050565b6000611efc8284611ebf565b915081905092915050565b6000611f1282611af4565b9050919050565b611f2281611f07565b8114611f2d57600080fd5b50565b600081519050611f3f81611f19565b92915050565b600060208284031215611f5b57611f5a611ab9565b5b6000611f6984828501611f30565b91505092915050565b6000819050919050565b611f8581611f72565b8114611f9057600080fd5b50565b600081519050611fa281611f7c565b92915050565b600060208284031215611fbe57611fbd611ab9565b5b6000611fcc84828501611f93565b91505092915050565b611fde81611c9c565b8114611fe957600080fd5b50565b600081519050611ffb81611fd5565b92915050565b60006020828403121561201757612016611ab9565b5b600061202584828501611fec565b91505092915050565b7f4e487b7100000000000000000000000000000000000000000000000000000000600052603260045260246000fd5b60006020828403121561207357612072611ab9565b5b600061208184828501611df8565b91505092915050565b6000819050919050565b60006120af6120aa6120a584611af4565b61208a565b611af4565b9050919050565b60006120c182612094565b9050919050565b60006120d3826120b6565b9050919050565b6120e3816120c8565b82525050565b6120f281611b14565b82525050565b61210181611abe565b82525050565b61211081611c9c565b82525050565b600060808201905061212b60008301876120da565b61213860208301866120e9565b61214560408301856120f8565b6121526060830184612107565b95945050505050565b600061216682611abe565b91507fffffffffffffffffffffffffffffffffffffffffffffffffffffffffffffffff82141561219957612198611cfd565b5b600182019050919050565b60006060820190506121b96000830186611c32565b6121c66020830185611c32565b6121d36040830184611c08565b949350505050565b60008160011c9050919050565b6000808291508390505b60018511156122325780860481111561220e5761220d611cfd565b5b600185161561221d5780820291505b808102905061222b856121db565b94506121f2565b94509492505050565b60008261224b5760019050612307565b816122595760009050612307565b816001811461226f5760028114612279576122a8565b6001915050612307565b60ff84111561228b5761228a611cfd565b5b8360020a9150848211156122a2576122a1611cfd565b5b50612307565b5060208310610133831016604e8410600b84101617156122dd5782820a9050838111156122d8576122d7611cfd565b5b612307565b6122ea84848460016121e8565b9250905081840481111561230157612300611cfd565b5b81810290505b9392505050565b600061231982611abe565b915061232483611abe565b92506123517fffffffffffffffffffffffffffffffffffffffffffffffffffffffffffffffff848461223b565b905092915050565b600061236482611abe565b915061236f83611abe565b9250817fffffffffffffffffffffffffffffffffffffffffffffffffffffffffffffffff04831182151516156123a8576123a7611cfd565b5b828202905092915050565b7f4e487b7100000000000000000000000000000000000000000000000000000000600052601260045260246000fd5b60006123ed82611abe565b91506123f883611abe565b925082612408576124076123b3565b5b828204905092915050565b61241c81611ba5565b811461242757600080fd5b50565b60008151905061243981612413565b92915050565b60006020828403121561245557612454611ab9565b5b60006124638482850161242a565b91505092915050565b600082825260208201905092915050565b7f5361666545524332303a204552433230206f7065726174696f6e20646964206e60008201527f6f74207375636365656400000000000000000000000000000000000000000000602082015250565b60006124d9602a8361246c565b91506124e48261247d565b604082019050919050565b60006020820190508181036000830152612508816124cc565b9050919050565b7f416464726573733a20696e73756666696369656e742062616c616e636520666f60008201527f722063616c6c0000000000000000000000000000000000000000000000000000602082015250565b600061256b60268361246c565b91506125768261250f565b604082019050919050565b6000602082019050818103600083015261259a8161255e565b9050919050565b7f416464726573733a2063616c6c20746f206e6f6e2d636f6e7472616374000000600082015250565b60006125d7601d8361246c565b91506125e2826125a1565b602082019050919050565b60006020820190508181036000830152612606816125ca565b9050919050565b600081519050919050565b6000601f19601f8301169050919050565b60006126348261260d565b61263e818561246c565b935061264e818560208601611e8c565b61265781612618565b840191505092915050565b6000602082019050818103600083015261267c8184612629565b90509291505056fea2646970667358221220fae1a611072b3cfee24c454df3693e8567c102001243605f2e593c4e8ad8778864736f6c63430008090033",
  "libraries": {
    "CreditLib": "0xD0a68b3894704A17056FE6Cc64Fb314a528813A4"
  },
  "devdoc": {
    "kind": "dev",
    "methods": {
      "addCollateral(uint256,address)": {
        "details": "updates cratiorequires that the token deposited can be valued by the escrow's oracle & the depositor has approved this contract- callable by anyone",
        "params": {
          "amount": "- the amount of collateral to add",
          "token": "- the token address of the deposited token"
        },
        "returns": {
          "_0": "- the updated cratio"
        }
      },
      "enableCollateral(address)": {
        "details": "- whitelisting protects against malicious 4626 tokens and DoS attacks       - only need to allow once. Can not disable collateral once enabled.",
        "params": {
          "token": "- the token to all borrow to deposit as collateral"
        }
      },
      "getCollateralRatio()": {
        "details": "callable by anyone",
        "returns": {
          "_0": "- the calculated cratio"
        }
      },
      "getCollateralValue()": {
        "details": "callable by anyone",
        "returns": {
          "_0": "- the calculated collateral value to 8 decimals"
        }
      },
      "liquidate(uint256,address,address)": {
        "details": "requires that the cratio is at or below the liquidation thresholdcallable by `loan`",
        "params": {
          "amount": "- the amount of tokens to liquidate",
          "to": "- the address to receive the funds",
          "token": "- the address of the token to draw funds from"
        },
        "returns": {
          "_0": "- true if successful"
        }
      },
      "releaseCollateral(uint256,address,address)": {
        "details": "callable by `borrower`updates cratio",
        "params": {
          "amount": "- the amount of collateral to release",
          "to": "- who should receive the funds",
          "token": "- the token address to withdraw"
        },
        "returns": {
          "_0": "- the updated cratio"
        }
      }
    },
    "version": 1
  },
  "userdoc": {
    "kind": "user",
    "methods": {
      "addCollateral(uint256,address)": {
        "notice": "add collateral to your position"
      },
      "enableCollateral(address)": {
        "notice": "- allows  the loans arbiter to  enable thdeposits of an asset        - gives  better risk segmentation forlenders"
      },
      "getCollateralRatio()": {
        "notice": "calculates the cratio"
      },
      "getCollateralValue()": {
        "notice": "calculates the collateral value in USD to 8 decimals"
      },
      "liquidate(uint256,address,address)": {
        "notice": "liquidates borrowers collateral by token and amount"
      },
      "releaseCollateral(uint256,address,address)": {
        "notice": "remove collateral from your position. Must remain above min collateral ratio"
      }
    },
    "version": 1
  },
  "storageLayout": {
    "storage": [
      {
        "astId": 9301,
        "contract": "contracts/modules/escrow/Escrow.sol:Escrow",
        "label": "minimumCollateralRatio",
        "offset": 0,
        "slot": "0",
        "type": "t_uint256"
      },
      {
        "astId": 9310,
        "contract": "contracts/modules/escrow/Escrow.sol:Escrow",
        "label": "loan",
        "offset": 0,
        "slot": "1",
        "type": "t_address"
      },
      {
        "astId": 9313,
        "contract": "contracts/modules/escrow/Escrow.sol:Escrow",
        "label": "_collateralTokens",
        "offset": 0,
        "slot": "2",
        "type": "t_array(t_address)dyn_storage"
      },
      {
        "astId": 9317,
        "contract": "contracts/modules/escrow/Escrow.sol:Escrow",
        "label": "enabled",
        "offset": 0,
        "slot": "3",
        "type": "t_mapping(t_address,t_bool)"
      },
      {
        "astId": 9322,
        "contract": "contracts/modules/escrow/Escrow.sol:Escrow",
        "label": "deposited",
        "offset": 0,
        "slot": "4",
        "type": "t_mapping(t_address,t_struct(Deposit)1694_storage)"
      }
    ],
    "types": {
      "t_address": {
        "encoding": "inplace",
        "label": "address",
        "numberOfBytes": "20"
      },
      "t_array(t_address)dyn_storage": {
        "base": "t_address",
        "encoding": "dynamic_array",
        "label": "address[]",
        "numberOfBytes": "32"
      },
      "t_bool": {
        "encoding": "inplace",
        "label": "bool",
        "numberOfBytes": "1"
      },
      "t_mapping(t_address,t_bool)": {
        "encoding": "mapping",
        "key": "t_address",
        "label": "mapping(address => bool)",
        "numberOfBytes": "32",
        "value": "t_bool"
      },
      "t_mapping(t_address,t_struct(Deposit)1694_storage)": {
        "encoding": "mapping",
        "key": "t_address",
        "label": "mapping(address => struct IEscrow.Deposit)",
        "numberOfBytes": "32",
        "value": "t_struct(Deposit)1694_storage"
      },
      "t_struct(Deposit)1694_storage": {
        "encoding": "inplace",
        "label": "struct IEscrow.Deposit",
        "members": [
          {
            "astId": 1687,
            "contract": "contracts/modules/escrow/Escrow.sol:Escrow",
            "label": "amount",
            "offset": 0,
            "slot": "0",
            "type": "t_uint256"
          },
          {
            "astId": 1689,
            "contract": "contracts/modules/escrow/Escrow.sol:Escrow",
            "label": "isERC4626",
            "offset": 0,
            "slot": "1",
            "type": "t_bool"
          },
          {
            "astId": 1691,
            "contract": "contracts/modules/escrow/Escrow.sol:Escrow",
            "label": "asset",
            "offset": 1,
            "slot": "1",
            "type": "t_address"
          },
          {
            "astId": 1693,
            "contract": "contracts/modules/escrow/Escrow.sol:Escrow",
            "label": "assetDecimals",
            "offset": 21,
            "slot": "1",
            "type": "t_uint8"
          }
        ],
        "numberOfBytes": "64"
      },
      "t_uint256": {
        "encoding": "inplace",
        "label": "uint256",
        "numberOfBytes": "32"
      },
      "t_uint8": {
        "encoding": "inplace",
        "label": "uint8",
        "numberOfBytes": "1"
      }
    }
  }
}