{
  "address": "0xFf03B21659936A258F1f1F996f38452643421E24",
  "abi": [
    {
      "anonymous": false,
      "inputs": [
        {
          "indexed": true,
          "internalType": "address",
          "name": "owner",
          "type": "address"
        },
        {
          "indexed": true,
          "internalType": "address",
          "name": "spender",
          "type": "address"
        },
        {
          "indexed": false,
          "internalType": "uint256",
          "name": "value",
          "type": "uint256"
        }
      ],
      "name": "Approval",
      "type": "event"
    },
    {
      "anonymous": false,
      "inputs": [
        {
          "indexed": true,
          "internalType": "address",
          "name": "from",
          "type": "address"
        },
        {
          "indexed": true,
          "internalType": "address",
          "name": "to",
          "type": "address"
        },
        {
          "indexed": false,
          "internalType": "uint256",
          "name": "value",
          "type": "uint256"
        }
      ],
      "name": "Transfer",
      "type": "event"
    },
    {
      "inputs": [
        {
          "internalType": "address",
          "name": "owner",
          "type": "address"
        },
        {
          "internalType": "address",
          "name": "spender",
          "type": "address"
        }
      ],
      "name": "allowance",
      "outputs": [
        {
          "internalType": "uint256",
          "name": "",
          "type": "uint256"
        }
      ],
      "stateMutability": "view",
      "type": "function"
    },
    {
      "inputs": [
        {
          "internalType": "address",
          "name": "spender",
          "type": "address"
        },
        {
          "internalType": "uint256",
          "name": "amount",
          "type": "uint256"
        }
      ],
      "name": "approve",
      "outputs": [
        {
          "internalType": "bool",
          "name": "",
          "type": "bool"
        }
      ],
      "stateMutability": "nonpayable",
      "type": "function"
    },
    {
      "inputs": [
        {
          "internalType": "address",
          "name": "account",
          "type": "address"
        }
      ],
      "name": "balanceOf",
      "outputs": [
        {
          "internalType": "uint256",
          "name": "",
          "type": "uint256"
        }
      ],
      "stateMutability": "view",
      "type": "function"
    },
    {
      "inputs": [
        {
          "internalType": "address",
          "name": "account",
          "type": "address"
        },
        {
          "internalType": "uint256",
          "name": "amount",
          "type": "uint256"
        }
      ],
      "name": "burnFrom",
      "outputs": [
        {
          "internalType": "bool",
          "name": "",
          "type": "bool"
        }
      ],
      "stateMutability": "nonpayable",
      "type": "function"
    },
    {
      "inputs": [],
      "name": "decimals",
      "outputs": [
        {
          "internalType": "uint8",
          "name": "",
          "type": "uint8"
        }
      ],
      "stateMutability": "view",
      "type": "function"
    },
    {
      "inputs": [
        {
          "internalType": "address",
          "name": "spender",
          "type": "address"
        },
        {
          "internalType": "uint256",
          "name": "subtractedValue",
          "type": "uint256"
        }
      ],
      "name": "decreaseAllowance",
      "outputs": [
        {
          "internalType": "bool",
          "name": "",
          "type": "bool"
        }
      ],
      "stateMutability": "nonpayable",
      "type": "function"
    },
    {
      "inputs": [
        {
          "internalType": "address",
          "name": "spender",
          "type": "address"
        },
        {
          "internalType": "uint256",
          "name": "addedValue",
          "type": "uint256"
        }
      ],
      "name": "increaseAllowance",
      "outputs": [
        {
          "internalType": "bool",
          "name": "",
          "type": "bool"
        }
      ],
      "stateMutability": "nonpayable",
      "type": "function"
    },
    {
      "inputs": [
        {
          "internalType": "address",
          "name": "account",
          "type": "address"
        },
        {
          "internalType": "uint256",
          "name": "amount",
          "type": "uint256"
        }
      ],
      "name": "mint",
      "outputs": [
        {
          "internalType": "bool",
          "name": "",
          "type": "bool"
        }
      ],
      "stateMutability": "nonpayable",
      "type": "function"
    },
    {
      "inputs": [],
      "name": "name",
      "outputs": [
        {
          "internalType": "string",
          "name": "",
          "type": "string"
        }
      ],
      "stateMutability": "view",
      "type": "function"
    },
    {
      "inputs": [],
      "name": "symbol",
      "outputs": [
        {
          "internalType": "string",
          "name": "",
          "type": "string"
        }
      ],
      "stateMutability": "view",
      "type": "function"
    },
    {
      "inputs": [],
      "name": "totalSupply",
      "outputs": [
        {
          "internalType": "uint256",
          "name": "",
          "type": "uint256"
        }
      ],
      "stateMutability": "view",
      "type": "function"
    },
    {
      "inputs": [
        {
          "internalType": "address",
          "name": "to",
          "type": "address"
        },
        {
          "internalType": "uint256",
          "name": "amount",
          "type": "uint256"
        }
      ],
      "name": "transfer",
      "outputs": [
        {
          "internalType": "bool",
          "name": "",
          "type": "bool"
        }
      ],
      "stateMutability": "nonpayable",
      "type": "function"
    },
    {
      "inputs": [
        {
          "internalType": "address",
          "name": "from",
          "type": "address"
        },
        {
          "internalType": "address",
          "name": "to",
          "type": "address"
        },
        {
          "internalType": "uint256",
          "name": "amount",
          "type": "uint256"
        }
      ],
      "name": "transferFrom",
      "outputs": [
        {
          "internalType": "bool",
          "name": "",
          "type": "bool"
        }
      ],
      "stateMutability": "nonpayable",
      "type": "function"
    }
  ],
  "transactionHash": "0xdaf3ca39be6b56fa25d8a1b085767c01ba128ded306f97d9a436c4ee68a81c1f",
  "args": [],
  "numDeployments": 1,
  "solcInputHash": "2a60ac237244dc390ce3bdbc44555d3c",
  "bytecode": "0x60806040523480156200001157600080fd5b506040518060400160405280601781526020017f546f6b656e206561726e656420617320726576656e75650000000000000000008152506040518060400160405280600581526020017f4252525252000000000000000000000000000000000000000000000000000000815250816003908051906020019062000096929190620000b8565b508060049080519060200190620000af929190620000b8565b505050620001cd565b828054620000c69062000197565b90600052602060002090601f016020900481019282620000ea576000855562000136565b82601f106200010557805160ff191683800117855562000136565b8280016001018555821562000136579182015b828111156200013557825182559160200191906001019062000118565b5b50905062000145919062000149565b5090565b5b80821115620001645760008160009055506001016200014a565b5090565b7f4e487b7100000000000000000000000000000000000000000000000000000000600052602260045260246000fd5b60006002820490506001821680620001b057607f821691505b60208210811415620001c757620001c662000168565b5b50919050565b61181580620001dd6000396000f3fe608060405234801561001057600080fd5b50600436106100cf5760003560e01c806340c10f191161008c57806395d89b411161006657806395d89b411461024e578063a457c2d71461026c578063a9059cbb1461029c578063dd62ed3e146102cc576100cf565b806340c10f19146101be57806370a08231146101ee57806379cc67901461021e576100cf565b806306fdde03146100d4578063095ea7b3146100f257806318160ddd1461012257806323b872dd14610140578063313ce56714610170578063395093511461018e575b600080fd5b6100dc6102fc565b6040516100e99190610f0b565b60405180910390f35b61010c60048036038101906101079190610fc6565b61038e565b6040516101199190611021565b60405180910390f35b61012a6103b1565b604051610137919061104b565b60405180910390f35b61015a60048036038101906101559190611066565b6103bb565b6040516101679190611021565b60405180910390f35b6101786103ea565b60405161018591906110d5565b60405180910390f35b6101a860048036038101906101a39190610fc6565b6103f3565b6040516101b59190611021565b60405180910390f35b6101d860048036038101906101d39190610fc6565b61042a565b6040516101e59190611021565b60405180910390f35b610208600480360381019061020391906110f0565b610440565b604051610215919061104b565b60405180910390f35b61023860048036038101906102339190610fc6565b610488565b6040516102459190611021565b60405180910390f35b61025661049e565b6040516102639190610f0b565b60405180910390f35b61028660048036038101906102819190610fc6565b610530565b6040516102939190611021565b60405180910390f35b6102b660048036038101906102b19190610fc6565b6105a7565b6040516102c39190611021565b60405180910390f35b6102e660048036038101906102e1919061111d565b6105ca565b6040516102f3919061104b565b60405180910390f35b60606003805461030b9061118c565b80601f01602080910402602001604051908101604052809291908181526020018280546103379061118c565b80156103845780601f1061035957610100808354040283529160200191610384565b820191906000526020600020905b81548152906001019060200180831161036757829003601f168201915b5050505050905090565b600080610399610651565b90506103a6818585610659565b600191505092915050565b6000600254905090565b6000806103c6610651565b90506103d3858285610824565b6103de8585856108b0565b60019150509392505050565b60006012905090565b6000806103fe610651565b905061041f81858561041085896105ca565b61041a91906111ed565b610659565b600191505092915050565b60006104368383610b31565b6001905092915050565b60008060008373ffffffffffffffffffffffffffffffffffffffff1673ffffffffffffffffffffffffffffffffffffffff168152602001908152602001600020549050919050565b60006104948383610c91565b6001905092915050565b6060600480546104ad9061118c565b80601f01602080910402602001604051908101604052809291908181526020018280546104d99061118c565b80156105265780601f106104fb57610100808354040283529160200191610526565b820191906000526020600020905b81548152906001019060200180831161050957829003601f168201915b5050505050905090565b60008061053b610651565b9050600061054982866105ca565b90508381101561058e576040517f08c379a0000000000000000000000000000000000000000000000000000000008152600401610585906112b5565b60405180910390fd5b61059b8286868403610659565b60019250505092915050565b6000806105b2610651565b90506105bf8185856108b0565b600191505092915050565b6000600160008473ffffffffffffffffffffffffffffffffffffffff1673ffffffffffffffffffffffffffffffffffffffff16815260200190815260200160002060008373ffffffffffffffffffffffffffffffffffffffff1673ffffffffffffffffffffffffffffffffffffffff16815260200190815260200160002054905092915050565b600033905090565b600073ffffffffffffffffffffffffffffffffffffffff168373ffffffffffffffffffffffffffffffffffffffff1614156106c9576040517f08c379a00000000000000000000000000000000000000000000000000000000081526004016106c090611347565b60405180910390fd5b600073ffffffffffffffffffffffffffffffffffffffff168273ffffffffffffffffffffffffffffffffffffffff161415610739576040517f08c379a0000000000000000000000000000000000000000000000000000000008152600401610730906113d9565b60405180910390fd5b80600160008573ffffffffffffffffffffffffffffffffffffffff1673ffffffffffffffffffffffffffffffffffffffff16815260200190815260200160002060008473ffffffffffffffffffffffffffffffffffffffff1673ffffffffffffffffffffffffffffffffffffffff168152602001908152602001600020819055508173ffffffffffffffffffffffffffffffffffffffff168373ffffffffffffffffffffffffffffffffffffffff167f8c5be1e5ebec7d5bd14f71427d1e84f3dd0314c0f7b2291e5b200ac8c7c3b92583604051610817919061104b565b60405180910390a3505050565b600061083084846105ca565b90507fffffffffffffffffffffffffffffffffffffffffffffffffffffffffffffffff81146108aa578181101561089c576040517f08c379a000000000000000000000000000000000000000000000000000000000815260040161089390611445565b60405180910390fd5b6108a98484848403610659565b5b50505050565b600073ffffffffffffffffffffffffffffffffffffffff168373ffffffffffffffffffffffffffffffffffffffff161415610920576040517f08c379a0000000000000000000000000000000000000000000000000000000008152600401610917906114d7565b60405180910390fd5b600073ffffffffffffffffffffffffffffffffffffffff168273ffffffffffffffffffffffffffffffffffffffff161415610990576040517f08c379a000000000000000000000000000000000000000000000000000000000815260040161098790611569565b60405180910390fd5b61099b838383610e68565b60008060008573ffffffffffffffffffffffffffffffffffffffff1673ffffffffffffffffffffffffffffffffffffffff16815260200190815260200160002054905081811015610a21576040517f08c379a0000000000000000000000000000000000000000000000000000000008152600401610a18906115fb565b60405180910390fd5b8181036000808673ffffffffffffffffffffffffffffffffffffffff1673ffffffffffffffffffffffffffffffffffffffff16815260200190815260200160002081905550816000808573ffffffffffffffffffffffffffffffffffffffff1673ffffffffffffffffffffffffffffffffffffffff1681526020019081526020016000206000828254610ab491906111ed565b925050819055508273ffffffffffffffffffffffffffffffffffffffff168473ffffffffffffffffffffffffffffffffffffffff167fddf252ad1be2c89b69c2b068fc378daa952ba7f163c4a11628f55a4df523b3ef84604051610b18919061104b565b60405180910390a3610b2b848484610e6d565b50505050565b600073ffffffffffffffffffffffffffffffffffffffff168273ffffffffffffffffffffffffffffffffffffffff161415610ba1576040517f08c379a0000000000000000000000000000000000000000000000000000000008152600401610b9890611667565b60405180910390fd5b610bad60008383610e68565b8060026000828254610bbf91906111ed565b92505081905550806000808473ffffffffffffffffffffffffffffffffffffffff1673ffffffffffffffffffffffffffffffffffffffff1681526020019081526020016000206000828254610c1491906111ed565b925050819055508173ffffffffffffffffffffffffffffffffffffffff16600073ffffffffffffffffffffffffffffffffffffffff167fddf252ad1be2c89b69c2b068fc378daa952ba7f163c4a11628f55a4df523b3ef83604051610c79919061104b565b60405180910390a3610c8d60008383610e6d565b5050565b600073ffffffffffffffffffffffffffffffffffffffff168273ffffffffffffffffffffffffffffffffffffffff161415610d01576040517f08c379a0000000000000000000000000000000000000000000000000000000008152600401610cf8906116f9565b60405180910390fd5b610d0d82600083610e68565b60008060008473ffffffffffffffffffffffffffffffffffffffff1673ffffffffffffffffffffffffffffffffffffffff16815260200190815260200160002054905081811015610d93576040517f08c379a0000000000000000000000000000000000000000000000000000000008152600401610d8a9061178b565b60405180910390fd5b8181036000808573ffffffffffffffffffffffffffffffffffffffff1673ffffffffffffffffffffffffffffffffffffffff168152602001908152602001600020819055508160026000828254610dea91906117ab565b92505081905550600073ffffffffffffffffffffffffffffffffffffffff168373ffffffffffffffffffffffffffffffffffffffff167fddf252ad1be2c89b69c2b068fc378daa952ba7f163c4a11628f55a4df523b3ef84604051610e4f919061104b565b60405180910390a3610e6383600084610e6d565b505050565b505050565b505050565b600081519050919050565b600082825260208201905092915050565b60005b83811015610eac578082015181840152602081019050610e91565b83811115610ebb576000848401525b50505050565b6000601f19601f8301169050919050565b6000610edd82610e72565b610ee78185610e7d565b9350610ef7818560208601610e8e565b610f0081610ec1565b840191505092915050565b60006020820190508181036000830152610f258184610ed2565b905092915050565b600080fd5b600073ffffffffffffffffffffffffffffffffffffffff82169050919050565b6000610f5d82610f32565b9050919050565b610f6d81610f52565b8114610f7857600080fd5b50565b600081359050610f8a81610f64565b92915050565b6000819050919050565b610fa381610f90565b8114610fae57600080fd5b50565b600081359050610fc081610f9a565b92915050565b60008060408385031215610fdd57610fdc610f2d565b5b6000610feb85828601610f7b565b9250506020610ffc85828601610fb1565b9150509250929050565b60008115159050919050565b61101b81611006565b82525050565b60006020820190506110366000830184611012565b92915050565b61104581610f90565b82525050565b6000602082019050611060600083018461103c565b92915050565b60008060006060848603121561107f5761107e610f2d565b5b600061108d86828701610f7b565b935050602061109e86828701610f7b565b92505060406110af86828701610fb1565b9150509250925092565b600060ff82169050919050565b6110cf816110b9565b82525050565b60006020820190506110ea60008301846110c6565b92915050565b60006020828403121561110657611105610f2d565b5b600061111484828501610f7b565b91505092915050565b6000806040838503121561113457611133610f2d565b5b600061114285828601610f7b565b925050602061115385828601610f7b565b9150509250929050565b7f4e487b7100000000000000000000000000000000000000000000000000000000600052602260045260246000fd5b600060028204905060018216806111a457607f821691505b602082108114156111b8576111b761115d565b5b50919050565b7f4e487b7100000000000000000000000000000000000000000000000000000000600052601160045260246000fd5b60006111f882610f90565b915061120383610f90565b9250827fffffffffffffffffffffffffffffffffffffffffffffffffffffffffffffffff03821115611238576112376111be565b5b828201905092915050565b7f45524332303a2064656372656173656420616c6c6f77616e63652062656c6f7760008201527f207a65726f000000000000000000000000000000000000000000000000000000602082015250565b600061129f602583610e7d565b91506112aa82611243565b604082019050919050565b600060208201905081810360008301526112ce81611292565b9050919050565b7f45524332303a20617070726f76652066726f6d20746865207a65726f2061646460008201527f7265737300000000000000000000000000000000000000000000000000000000602082015250565b6000611331602483610e7d565b915061133c826112d5565b604082019050919050565b6000602082019050818103600083015261136081611324565b9050919050565b7f45524332303a20617070726f766520746f20746865207a65726f20616464726560008201527f7373000000000000000000000000000000000000000000000000000000000000602082015250565b60006113c3602283610e7d565b91506113ce82611367565b604082019050919050565b600060208201905081810360008301526113f2816113b6565b9050919050565b7f45524332303a20696e73756666696369656e7420616c6c6f77616e6365000000600082015250565b600061142f601d83610e7d565b915061143a826113f9565b602082019050919050565b6000602082019050818103600083015261145e81611422565b9050919050565b7f45524332303a207472616e736665722066726f6d20746865207a65726f20616460008201527f6472657373000000000000000000000000000000000000000000000000000000602082015250565b60006114c1602583610e7d565b91506114cc82611465565b604082019050919050565b600060208201905081810360008301526114f0816114b4565b9050919050565b7f45524332303a207472616e7366657220746f20746865207a65726f206164647260008201527f6573730000000000000000000000000000000000000000000000000000000000602082015250565b6000611553602383610e7d565b915061155e826114f7565b604082019050919050565b6000602082019050818103600083015261158281611546565b9050919050565b7f45524332303a207472616e7366657220616d6f756e742065786365656473206260008201527f616c616e63650000000000000000000000000000000000000000000000000000602082015250565b60006115e5602683610e7d565b91506115f082611589565b604082019050919050565b60006020820190508181036000830152611614816115d8565b9050919050565b7f45524332303a206d696e7420746f20746865207a65726f206164647265737300600082015250565b6000611651601f83610e7d565b915061165c8261161b565b602082019050919050565b6000602082019050818103600083015261168081611644565b9050919050565b7f45524332303a206275726e2066726f6d20746865207a65726f2061646472657360008201527f7300000000000000000000000000000000000000000000000000000000000000602082015250565b60006116e3602183610e7d565b91506116ee82611687565b604082019050919050565b60006020820190508181036000830152611712816116d6565b9050919050565b7f45524332303a206275726e20616d6f756e7420657863656564732062616c616e60008201527f6365000000000000000000000000000000000000000000000000000000000000602082015250565b6000611775602283610e7d565b915061178082611719565b604082019050919050565b600060208201905081810360008301526117a481611768565b9050919050565b60006117b682610f90565b91506117c183610f90565b9250828210156117d4576117d36111be565b5b82820390509291505056fea2646970667358221220797794019e054cd5cc5159329f7c0fdcdea0693b7c0a1f9a2e80e242b1c5763764736f6c63430008090033",
  "devdoc": {
    "kind": "dev",
    "methods": {
      "allowance(address,address)": {
        "details": "See {IERC20-allowance}."
      },
      "approve(address,uint256)": {
        "details": "See {IERC20-approve}. NOTE: If `amount` is the maximum `uint256`, the allowance is not updated on `transferFrom`. This is semantically equivalent to an infinite approval. Requirements: - `spender` cannot be the zero address."
      },
      "balanceOf(address)": {
        "details": "See {IERC20-balanceOf}."
      },
      "decimals()": {
        "details": "Returns the number of decimals used to get its user representation. For example, if `decimals` equals `2`, a balance of `505` tokens should be displayed to a user as `5.05` (`505 / 10 ** 2`). Tokens usually opt for a value of 18, imitating the relationship between Ether and Wei. This is the value {ERC20} uses, unless this function is overridden; NOTE: This information is only used for _display_ purposes: it in no way affects any of the arithmetic of the contract, including {IERC20-balanceOf} and {IERC20-transfer}."
      },
      "decreaseAllowance(address,uint256)": {
        "details": "Atomically decreases the allowance granted to `spender` by the caller. This is an alternative to {approve} that can be used as a mitigation for problems described in {IERC20-approve}. Emits an {Approval} event indicating the updated allowance. Requirements: - `spender` cannot be the zero address. - `spender` must have allowance for the caller of at least `subtractedValue`."
      },
      "increaseAllowance(address,uint256)": {
        "details": "Atomically increases the allowance granted to `spender` by the caller. This is an alternative to {approve} that can be used as a mitigation for problems described in {IERC20-approve}. Emits an {Approval} event indicating the updated allowance. Requirements: - `spender` cannot be the zero address."
      },
      "name()": {
        "details": "Returns the name of the token."
      },
      "symbol()": {
        "details": "Returns the symbol of the token, usually a shorter version of the name."
      },
      "totalSupply()": {
        "details": "See {IERC20-totalSupply}."
      },
      "transfer(address,uint256)": {
        "details": "See {IERC20-transfer}. Requirements: - `to` cannot be the zero address. - the caller must have a balance of at least `amount`."
      },
      "transferFrom(address,address,uint256)": {
        "details": "See {IERC20-transferFrom}. Emits an {Approval} event indicating the updated allowance. This is not required by the EIP. See the note at the beginning of {ERC20}. NOTE: Does not update the allowance if the current allowance is the maximum `uint256`. Requirements: - `from` and `to` cannot be the zero address. - `from` must have a balance of at least `amount`. - the caller must have allowance for ``from``'s tokens of at least `amount`."
      }
    },
    "version": 1
  },
  "userdoc": {
    "kind": "user",
    "methods": {},
    "version": 1
  },
  "storageLayout": {
    "storage": [
      {
        "astId": 469,
        "contract": "contracts/mock/RevenueToken.sol:RevenueToken",
        "label": "_balances",
        "offset": 0,
        "slot": "0",
        "type": "t_mapping(t_address,t_uint256)"
      },
      {
        "astId": 475,
        "contract": "contracts/mock/RevenueToken.sol:RevenueToken",
        "label": "_allowances",
        "offset": 0,
        "slot": "1",
        "type": "t_mapping(t_address,t_mapping(t_address,t_uint256))"
      },
      {
        "astId": 477,
        "contract": "contracts/mock/RevenueToken.sol:RevenueToken",
        "label": "_totalSupply",
        "offset": 0,
        "slot": "2",
        "type": "t_uint256"
      },
      {
        "astId": 479,
        "contract": "contracts/mock/RevenueToken.sol:RevenueToken",
        "label": "_name",
        "offset": 0,
        "slot": "3",
        "type": "t_string_storage"
      },
      {
        "astId": 481,
        "contract": "contracts/mock/RevenueToken.sol:RevenueToken",
        "label": "_symbol",
        "offset": 0,
        "slot": "4",
        "type": "t_string_storage"
      }
    ],
    "types": {
      "t_address": {
        "encoding": "inplace",
        "label": "address",
        "numberOfBytes": "20"
      },
      "t_mapping(t_address,t_mapping(t_address,t_uint256))": {
        "encoding": "mapping",
        "key": "t_address",
        "label": "mapping(address => mapping(address => uint256))",
        "numberOfBytes": "32",
        "value": "t_mapping(t_address,t_uint256)"
      },
      "t_mapping(t_address,t_uint256)": {
        "encoding": "mapping",
        "key": "t_address",
        "label": "mapping(address => uint256)",
        "numberOfBytes": "32",
        "value": "t_uint256"
      },
      "t_string_storage": {
        "encoding": "bytes",
        "label": "string",
        "numberOfBytes": "32"
      },
      "t_uint256": {
        "encoding": "inplace",
        "label": "uint256",
        "numberOfBytes": "32"
      }
    }
  }
}